{
  "_format": "hh-sol-artifact-1",
  "contractName": "VendingMachineV1",
  "sourceName": "contracts/VendingMachineV1.sol",
  "abi": [
    {
      "anonymous": false,
      "inputs": [
        {
          "indexed": false,
          "internalType": "uint8",
          "name": "version",
          "type": "uint8"
        }
      ],
      "name": "Initialized",
      "type": "event"
    },
    {
      "inputs": [
        {
          "internalType": "uint256",
          "name": "_numSodas",
          "type": "uint256"
        }
      ],
      "name": "initialize",
      "outputs": [],
      "stateMutability": "nonpayable",
      "type": "function"
    },
    {
      "inputs": [],
      "name": "numSodas",
      "outputs": [
        {
          "internalType": "uint256",
          "name": "",
          "type": "uint256"
        }
      ],
      "stateMutability": "view",
      "type": "function"
    },
    {
      "inputs": [],
      "name": "owner",
      "outputs": [
        {
          "internalType": "address",
          "name": "",
          "type": "address"
        }
      ],
      "stateMutability": "view",
      "type": "function"
    },
    {
      "inputs": [],
      "name": "purchaseSoda",
      "outputs": [],
      "stateMutability": "payable",
      "type": "function"
    }
  ],
  "bytecode": "0x608060405234801561001057600080fd5b50610618806100206000396000f3fe60806040526004361061003f5760003560e01c806363b18329146100445780637454ab6d1461006f5780638da5cb5b14610079578063fe4b84df146100a4575b600080fd5b34801561005057600080fd5b506100596100cd565b6040516100669190610313565b60405180910390f35b6100776100d3565b005b34801561008557600080fd5b5061008e610132565b60405161009b919061036f565b60405180910390f35b3480156100b057600080fd5b506100cb60048036038101906100c691906103bb565b610158565b005b60015481565b6103e8341015610118576040517f08c379a000000000000000000000000000000000000000000000000000000000815260040161010f9061046b565b60405180910390fd5b6001600081548092919061012b906104ba565b9190505550565b600260009054906101000a900473ffffffffffffffffffffffffffffffffffffffff1681565b60008060019054906101000a900460ff161590508080156101895750600160008054906101000a900460ff1660ff16105b806101b65750610198306102d7565b1580156101b55750600160008054906101000a900460ff1660ff16145b5b6101f5576040517f08c379a00000000000000000000000000000000000000000000000000000000081526004016101ec90610555565b60405180910390fd5b60016000806101000a81548160ff021916908360ff1602179055508015610232576001600060016101000a81548160ff0219169083151502179055505b8160018190555033600260006101000a81548173ffffffffffffffffffffffffffffffffffffffff021916908373ffffffffffffffffffffffffffffffffffffffff16021790555080156102d35760008060016101000a81548160ff0219169083151502179055507f7f26b83ff96e1f2b6a682f133852f6798a09c465da95921460cefb384740249860016040516102ca91906105c7565b60405180910390a15b5050565b6000808273ffffffffffffffffffffffffffffffffffffffff163b119050919050565b6000819050919050565b61030d816102fa565b82525050565b60006020820190506103286000830184610304565b92915050565b600073ffffffffffffffffffffffffffffffffffffffff82169050919050565b60006103598261032e565b9050919050565b6103698161034e565b82525050565b60006020820190506103846000830184610360565b92915050565b600080fd5b610398816102fa565b81146103a357600080fd5b50565b6000813590506103b58161038f565b92915050565b6000602082840312156103d1576103d061038a565b5b60006103df848285016103a6565b91505092915050565b600082825260208201905092915050565b7f596f75206d7573742070617920313030302077656920666f72206120736f646160008201527f2100000000000000000000000000000000000000000000000000000000000000602082015250565b60006104556021836103e8565b9150610460826103f9565b604082019050919050565b6000602082019050818103600083015261048481610448565b9050919050565b7f4e487b7100000000000000000000000000000000000000000000000000000000600052601160045260246000fd5b60006104c5826102fa565b9150600082036104d8576104d761048b565b5b600182039050919050565b7f496e697469616c697a61626c653a20636f6e747261637420697320616c72656160008201527f647920696e697469616c697a6564000000000000000000000000000000000000602082015250565b600061053f602e836103e8565b915061054a826104e3565b604082019050919050565b6000602082019050818103600083015261056e81610532565b9050919050565b6000819050919050565b600060ff82169050919050565b6000819050919050565b60006105b16105ac6105a784610575565b61058c565b61057f565b9050919050565b6105c181610596565b82525050565b60006020820190506105dc60008301846105b8565b9291505056fea2646970667358221220e04d5ecce125fb9ee41286a724aeda2f64b8b5e4a79dfc2d42fe9183f84003cf64736f6c63430008110033",
  "linkReferences": {},
  "deployedLinkReferences": {}
}