{
  "_format": "hh-sol-artifact-1",
  "contractName": "VendingMachineV3",
  "sourceName": "contracts/VendingMachineV3.sol",
  "abi": [
    {
      "anonymous": false,
      "inputs": [
        {
          "indexed": false,
          "internalType": "uint8",
          "name": "version",
          "type": "uint8"
        }
      ],
      "name": "Initialized",
      "type": "event"
    },
    {
      "inputs": [
        {
          "internalType": "uint256",
          "name": "_sodasToAdd",
          "type": "uint256"
        }
      ],
      "name": "addSodas",
      "outputs": [],
      "stateMutability": "nonpayable",
      "type": "function"
    },
    {
      "inputs": [
        {
          "internalType": "uint256",
          "name": "_numSodas",
          "type": "uint256"
        }
      ],
      "name": "initialize",
      "outputs": [],
      "stateMutability": "nonpayable",
      "type": "function"
    },
    {
      "inputs": [],
      "name": "numSodas",
      "outputs": [
        {
          "internalType": "uint256",
          "name": "",
          "type": "uint256"
        }
      ],
      "stateMutability": "view",
      "type": "function"
    },
    {
      "inputs": [],
      "name": "owner",
      "outputs": [
        {
          "internalType": "address",
          "name": "",
          "type": "address"
        }
      ],
      "stateMutability": "view",
      "type": "function"
    },
    {
      "inputs": [],
      "name": "purchaseSoda",
      "outputs": [],
      "stateMutability": "payable",
      "type": "function"
    },
    {
      "inputs": [
        {
          "internalType": "address",
          "name": "_newOwner",
          "type": "address"
        }
      ],
      "name": "setNewOwner",
      "outputs": [],
      "stateMutability": "nonpayable",
      "type": "function"
    },
    {
      "inputs": [
        {
          "internalType": "address",
          "name": "",
          "type": "address"
        }
      ],
      "name": "sodasPerUser",
      "outputs": [
        {
          "internalType": "uint256",
          "name": "",
          "type": "uint256"
        }
      ],
      "stateMutability": "view",
      "type": "function"
    },
    {
      "inputs": [],
      "name": "withdrawProfits",
      "outputs": [],
      "stateMutability": "nonpayable",
      "type": "function"
    }
  ],
  "bytecode": "0x608060405234801561001057600080fd5b50610e08806100206000396000f3fe60806040526004361061007b5760003560e01c80638da5cb5b1161004e5780638da5cb5b146100f5578063f5a1f5b414610120578063fb9cada714610149578063fe4b84df146101865761007b565b806339913e091461008057806356f0e1c61461009757806363b18329146100c05780637454ab6d146100eb575b600080fd5b34801561008c57600080fd5b506100956101af565b005b3480156100a357600080fd5b506100be60048036038101906100b991906107e8565b610353565b005b3480156100cc57600080fd5b506100d56103fa565b6040516100e29190610824565b60405180910390f35b6100f3610400565b005b34801561010157600080fd5b5061010a6104f9565b6040516101179190610880565b60405180910390f35b34801561012c57600080fd5b50610147600480360381019061014291906108c7565b61051f565b005b34801561015557600080fd5b50610170600480360381019061016b91906108c7565b6105f3565b60405161017d9190610824565b60405180910390f35b34801561019257600080fd5b506101ad60048036038101906101a891906107e8565b61060b565b005b600260009054906101000a900473ffffffffffffffffffffffffffffffffffffffff1673ffffffffffffffffffffffffffffffffffffffff163373ffffffffffffffffffffffffffffffffffffffff161461023f576040517f08c379a000000000000000000000000000000000000000000000000000000000815260040161023690610977565b60405180910390fd5b60004711610282576040517f08c379a000000000000000000000000000000000000000000000000000000000815260040161027990610a09565b60405180910390fd5b6000600260009054906101000a900473ffffffffffffffffffffffffffffffffffffffff1673ffffffffffffffffffffffffffffffffffffffff16476040516102ca90610a5a565b60006040518083038185875af1925050503d8060008114610307576040519150601f19603f3d011682016040523d82523d6000602084013e61030c565b606091505b5050905080610350576040517f08c379a000000000000000000000000000000000000000000000000000000000815260040161034790610abb565b60405180910390fd5b50565b600260009054906101000a900473ffffffffffffffffffffffffffffffffffffffff1673ffffffffffffffffffffffffffffffffffffffff163373ffffffffffffffffffffffffffffffffffffffff16146103e3576040517f08c379a00000000000000000000000000000000000000000000000000000000081526004016103da90610977565b60405180910390fd5b806001546103f19190610b0a565b60018190555050565b60015481565b600060015411610445576040517f08c379a000000000000000000000000000000000000000000000000000000000815260040161043c90610bb0565b60405180910390fd5b6103e834101561048a576040517f08c379a000000000000000000000000000000000000000000000000000000000815260040161048190610c42565b60405180910390fd5b6001600081548092919061049d90610c62565b9190505550600360003373ffffffffffffffffffffffffffffffffffffffff1673ffffffffffffffffffffffffffffffffffffffff16815260200190815260200160002060008154809291906104f290610c8b565b9190505550565b600260009054906101000a900473ffffffffffffffffffffffffffffffffffffffff1681565b600260009054906101000a900473ffffffffffffffffffffffffffffffffffffffff1673ffffffffffffffffffffffffffffffffffffffff163373ffffffffffffffffffffffffffffffffffffffff16146105af576040517f08c379a00000000000000000000000000000000000000000000000000000000081526004016105a690610977565b60405180910390fd5b80600260006101000a81548173ffffffffffffffffffffffffffffffffffffffff021916908373ffffffffffffffffffffffffffffffffffffffff16021790555050565b60036020528060005260406000206000915090505481565b60008060019054906101000a900460ff1615905080801561063c5750600160008054906101000a900460ff1660ff16105b80610669575061064b3061078a565b1580156106685750600160008054906101000a900460ff1660ff16145b5b6106a8576040517f08c379a000000000000000000000000000000000000000000000000000000000815260040161069f90610d45565b60405180910390fd5b60016000806101000a81548160ff021916908360ff16021790555080156106e5576001600060016101000a81548160ff0219169083151502179055505b8160018190555033600260006101000a81548173ffffffffffffffffffffffffffffffffffffffff021916908373ffffffffffffffffffffffffffffffffffffffff16021790555080156107865760008060016101000a81548160ff0219169083151502179055507f7f26b83ff96e1f2b6a682f133852f6798a09c465da95921460cefb3847402498600160405161077d9190610db7565b60405180910390a15b5050565b6000808273ffffffffffffffffffffffffffffffffffffffff163b119050919050565b600080fd5b6000819050919050565b6107c5816107b2565b81146107d057600080fd5b50565b6000813590506107e2816107bc565b92915050565b6000602082840312156107fe576107fd6107ad565b5b600061080c848285016107d3565b91505092915050565b61081e816107b2565b82525050565b60006020820190506108396000830184610815565b92915050565b600073ffffffffffffffffffffffffffffffffffffffff82169050919050565b600061086a8261083f565b9050919050565b61087a8161085f565b82525050565b60006020820190506108956000830184610871565b92915050565b6108a48161085f565b81146108af57600080fd5b50565b6000813590506108c18161089b565b92915050565b6000602082840312156108dd576108dc6107ad565b5b60006108eb848285016108b2565b91505092915050565b600082825260208201905092915050565b7f4f6e6c79206f776e65722063616e2063616c6c20746869732066756e6374696f60008201527f6e2e000000000000000000000000000000000000000000000000000000000000602082015250565b60006109616022836108f4565b915061096c82610905565b604082019050919050565b6000602082019050818103600083015261099081610954565b9050919050565b7f50726f66697473206d7573742062652067726561746572207468616e2030206960008201527f6e206f7264657220746f20776974686472617721000000000000000000000000602082015250565b60006109f36034836108f4565b91506109fe82610997565b604082019050919050565b60006020820190508181036000830152610a22816109e6565b9050919050565b600081905092915050565b50565b6000610a44600083610a29565b9150610a4f82610a34565b600082019050919050565b6000610a6582610a37565b9150819050919050565b7f4661696c656420746f2073656e64206574686572000000000000000000000000600082015250565b6000610aa56014836108f4565b9150610ab082610a6f565b602082019050919050565b60006020820190508181036000830152610ad481610a98565b9050919050565b7f4e487b7100000000000000000000000000000000000000000000000000000000600052601160045260246000fd5b6000610b15826107b2565b9150610b20836107b2565b9250828201905080821115610b3857610b37610adb565b5b92915050565b7f546865726520617265206e6f20736f646173206c65667420696e20746865206d60008201527f616368696e650000000000000000000000000000000000000000000000000000602082015250565b6000610b9a6026836108f4565b9150610ba582610b3e565b604082019050919050565b60006020820190508181036000830152610bc981610b8d565b9050919050565b7f596f75206d7573742070617920313030302077656920666f72206120736f646160008201527f2100000000000000000000000000000000000000000000000000000000000000602082015250565b6000610c2c6021836108f4565b9150610c3782610bd0565b604082019050919050565b60006020820190508181036000830152610c5b81610c1f565b9050919050565b6000610c6d826107b2565b915060008203610c8057610c7f610adb565b5b600182039050919050565b6000610c96826107b2565b91507fffffffffffffffffffffffffffffffffffffffffffffffffffffffffffffffff8203610cc857610cc7610adb565b5b600182019050919050565b7f496e697469616c697a61626c653a20636f6e747261637420697320616c72656160008201527f647920696e697469616c697a6564000000000000000000000000000000000000602082015250565b6000610d2f602e836108f4565b9150610d3a82610cd3565b604082019050919050565b60006020820190508181036000830152610d5e81610d22565b9050919050565b6000819050919050565b600060ff82169050919050565b6000819050919050565b6000610da1610d9c610d9784610d65565b610d7c565b610d6f565b9050919050565b610db181610d86565b82525050565b6000602082019050610dcc6000830184610da8565b9291505056fea2646970667358221220461888f6f0f2c76b9867f09d9c2959cb1f959ba7d4362bf8e5b13d1e063be95d64736f6c63430008110033",
  "linkReferences": {},
  "deployedLinkReferences": {}
}