{
  "_format": "hh-sol-artifact-1",
  "contractName": "VendingMachineV2",
  "sourceName": "contracts/VendingMachineV2.sol",
  "abi": [
    {
      "anonymous": false,
      "inputs": [
        {
          "indexed": false,
          "internalType": "uint8",
          "name": "version",
          "type": "uint8"
        }
      ],
      "name": "Initialized",
      "type": "event"
    },
    {
      "inputs": [
        {
          "internalType": "uint256",
          "name": "_numSodas",
          "type": "uint256"
        }
      ],
      "name": "initialize",
      "outputs": [],
      "stateMutability": "nonpayable",
      "type": "function"
    },
    {
      "inputs": [],
      "name": "numSodas",
      "outputs": [
        {
          "internalType": "uint256",
          "name": "",
          "type": "uint256"
        }
      ],
      "stateMutability": "view",
      "type": "function"
    },
    {
      "inputs": [],
      "name": "owner",
      "outputs": [
        {
          "internalType": "address",
          "name": "",
          "type": "address"
        }
      ],
      "stateMutability": "view",
      "type": "function"
    },
    {
      "inputs": [],
      "name": "purchaseSoda",
      "outputs": [],
      "stateMutability": "payable",
      "type": "function"
    },
    {
      "inputs": [
        {
          "internalType": "address",
          "name": "_newOwner",
          "type": "address"
        }
      ],
      "name": "setNewOwner",
      "outputs": [],
      "stateMutability": "nonpayable",
      "type": "function"
    },
    {
      "inputs": [],
      "name": "withdrawProfits",
      "outputs": [],
      "stateMutability": "nonpayable",
      "type": "function"
    }
  ],
  "bytecode": "0x608060405234801561001057600080fd5b50610b15806100206000396000f3fe6080604052600436106100555760003560e01c806339913e091461005a57806363b18329146100715780637454ab6d1461009c5780638da5cb5b146100a6578063f5a1f5b4146100d1578063fe4b84df146100fa575b600080fd5b34801561006657600080fd5b5061006f610123565b005b34801561007d57600080fd5b506100866102c7565b60405161009391906105e1565b60405180910390f35b6100a46102cd565b005b3480156100b257600080fd5b506100bb61032c565b6040516100c8919061063d565b60405180910390f35b3480156100dd57600080fd5b506100f860048036038101906100f39190610689565b610352565b005b34801561010657600080fd5b50610121600480360381019061011c91906106e2565b610426565b005b600260009054906101000a900473ffffffffffffffffffffffffffffffffffffffff1673ffffffffffffffffffffffffffffffffffffffff163373ffffffffffffffffffffffffffffffffffffffff16146101b3576040517f08c379a00000000000000000000000000000000000000000000000000000000081526004016101aa90610792565b60405180910390fd5b600047116101f6576040517f08c379a00000000000000000000000000000000000000000000000000000000081526004016101ed90610824565b60405180910390fd5b6000600260009054906101000a900473ffffffffffffffffffffffffffffffffffffffff1673ffffffffffffffffffffffffffffffffffffffff164760405161023e90610875565b60006040518083038185875af1925050503d806000811461027b576040519150601f19603f3d011682016040523d82523d6000602084013e610280565b606091505b50509050806102c4576040517f08c379a00000000000000000000000000000000000000000000000000000000081526004016102bb906108d6565b60405180910390fd5b50565b60015481565b6103e8341015610312576040517f08c379a000000000000000000000000000000000000000000000000000000000815260040161030990610968565b60405180910390fd5b60016000815480929190610325906109b7565b9190505550565b600260009054906101000a900473ffffffffffffffffffffffffffffffffffffffff1681565b600260009054906101000a900473ffffffffffffffffffffffffffffffffffffffff1673ffffffffffffffffffffffffffffffffffffffff163373ffffffffffffffffffffffffffffffffffffffff16146103e2576040517f08c379a00000000000000000000000000000000000000000000000000000000081526004016103d990610792565b60405180910390fd5b80600260006101000a81548173ffffffffffffffffffffffffffffffffffffffff021916908373ffffffffffffffffffffffffffffffffffffffff16021790555050565b60008060019054906101000a900460ff161590508080156104575750600160008054906101000a900460ff1660ff16105b806104845750610466306105a5565b1580156104835750600160008054906101000a900460ff1660ff16145b5b6104c3576040517f08c379a00000000000000000000000000000000000000000000000000000000081526004016104ba90610a52565b60405180910390fd5b60016000806101000a81548160ff021916908360ff1602179055508015610500576001600060016101000a81548160ff0219169083151502179055505b8160018190555033600260006101000a81548173ffffffffffffffffffffffffffffffffffffffff021916908373ffffffffffffffffffffffffffffffffffffffff16021790555080156105a15760008060016101000a81548160ff0219169083151502179055507f7f26b83ff96e1f2b6a682f133852f6798a09c465da95921460cefb384740249860016040516105989190610ac4565b60405180910390a15b5050565b6000808273ffffffffffffffffffffffffffffffffffffffff163b119050919050565b6000819050919050565b6105db816105c8565b82525050565b60006020820190506105f660008301846105d2565b92915050565b600073ffffffffffffffffffffffffffffffffffffffff82169050919050565b6000610627826105fc565b9050919050565b6106378161061c565b82525050565b6000602082019050610652600083018461062e565b92915050565b600080fd5b6106668161061c565b811461067157600080fd5b50565b6000813590506106838161065d565b92915050565b60006020828403121561069f5761069e610658565b5b60006106ad84828501610674565b91505092915050565b6106bf816105c8565b81146106ca57600080fd5b50565b6000813590506106dc816106b6565b92915050565b6000602082840312156106f8576106f7610658565b5b6000610706848285016106cd565b91505092915050565b600082825260208201905092915050565b7f4f6e6c79206f776e65722063616e2063616c6c20746869732066756e6374696f60008201527f6e2e000000000000000000000000000000000000000000000000000000000000602082015250565b600061077c60228361070f565b915061078782610720565b604082019050919050565b600060208201905081810360008301526107ab8161076f565b9050919050565b7f50726f66697473206d7573742062652067726561746572207468616e2030206960008201527f6e206f7264657220746f20776974686472617721000000000000000000000000602082015250565b600061080e60348361070f565b9150610819826107b2565b604082019050919050565b6000602082019050818103600083015261083d81610801565b9050919050565b600081905092915050565b50565b600061085f600083610844565b915061086a8261084f565b600082019050919050565b600061088082610852565b9150819050919050565b7f4661696c656420746f2073656e64206574686572000000000000000000000000600082015250565b60006108c060148361070f565b91506108cb8261088a565b602082019050919050565b600060208201905081810360008301526108ef816108b3565b9050919050565b7f596f75206d7573742070617920313030302077656920666f72206120736f646160008201527f2100000000000000000000000000000000000000000000000000000000000000602082015250565b600061095260218361070f565b915061095d826108f6565b604082019050919050565b6000602082019050818103600083015261098181610945565b9050919050565b7f4e487b7100000000000000000000000000000000000000000000000000000000600052601160045260246000fd5b60006109c2826105c8565b9150600082036109d5576109d4610988565b5b600182039050919050565b7f496e697469616c697a61626c653a20636f6e747261637420697320616c72656160008201527f647920696e697469616c697a6564000000000000000000000000000000000000602082015250565b6000610a3c602e8361070f565b9150610a47826109e0565b604082019050919050565b60006020820190508181036000830152610a6b81610a2f565b9050919050565b6000819050919050565b600060ff82169050919050565b6000819050919050565b6000610aae610aa9610aa484610a72565b610a89565b610a7c565b9050919050565b610abe81610a93565b82525050565b6000602082019050610ad96000830184610ab5565b9291505056fea2646970667358221220a4f5a982eb4b188cc5e18b8485e145a8f504d5fa22628f6ddb869324f13f94f264736f6c63430008110033",
  "linkReferences": {},
  "deployedLinkReferences": {}
}